:0300000002000EED
:0C000E00787FE4F6D8FD75811D020055D6
:1001680002100000021C00000A123F065B4F666D79
:0E0178007D077F6F08080102040810204080F8
:080197007FC8AE071FEE70FAED
:01019F00223D
:10018700758901758C4C758AD0D2AFD2A9D28C22D1
:1000EF00E4FBEB601A14703074082BF8E6F5A0AE41
:1000FF0010AF117C007D0A12009A74122D801574B6
:10010F00082BF8E6F5A0AE10AF117C007D0A1200A7
:10011F009A74122FF8E6F5801201970BBB02C38079
:01012F00BF10
:060003001201870200EF6C
:03000B00020130BF
:10013000C0E0C0D0D3E5119463E51094004006758B
:100140001000751100E51D6414451C700E0511E5C5
:100150001170020510751C00751D00051DE51D7050
:0801600002051CD0D0D0E032F2
:10001A00020003E493A3F8E493A34003F68001F2F9
:10002A0008DFF48029E493A3F85407240CC8C333E7
:10003A00C4540F4420C8834004F456800146F6DFB6
:10004A00E4800B0102040810204080900168E47EDD
:10005A00019360BCA3FF543F30E509541FFEE493AB
:10006A00A360010ECF54C025E060A840B8E493A372
:10007A00FAE493A3F8E493A3C8C582C8CAC583CA9D
:10008A00F0A3C8C582C8CAC583CADFE9DEE780BE55
:010186000078
:10009A00BC000BBE0029EF8DF084FFADF022E4CC4A
:1000AA00F875F008EF2FFFEE33FEEC33FCEE9DEC13
:1000BA00984005FCEE9DFE0FD5F0E9E4CEFD22ED59
:1000CA00F8F5F0EE8420D21CFEADF075F008EF2FA3
:1000DA00FFED33FD4007985006D5F0F222C398FD94
:0500EA000FD5F0EA2231
:00000001FF
