:0300000002010CEE
:0C010C00787FE4F6D8FD758112020153E3
:09000600FFFEFDFBF7EFDFBF7FF9
:04025700021100FF91
:040234007FF47E01D4
:10023800D3EF9400EE94004015E4FDFC0DBD0001E1
:0E0248000CED646E4C70F5EF1F70E51E80E249
:010256002285
:1001980078087C007D007BFF7A0079067E007F0965
:1001A8001200E675A8E5D288D28AC2B8D2BAE4FBB2
:1001B800FA12023474082BF8E6F5800BBB00010A2A
:0801C800EB64094A70EB80DBD7
:030003000201D027
:1001D000C0E0C0D075D000C003C004C005C006C0D8
:0101E0000717
:1001E100E4FB12023475800F1202347580F00BBBF0
:0201F10003F019
:0F01F300D007D006D005D004D003D0D0D0E03252
:03001300020202E4
:10020200C0E0C0D075D000C003C004C005C006C0A5
:0102120007E4
:10021300E4FB7580FF1202347580001202340BBBBD
:0202230003F0E6
:0F022500D007D006D005D004D003D0D0D0E0321F
:10011800020198E493A3F8E493A34003F68001F264
:1001280008DFF48029E493A3F85407240CC8C333E8
:10013800C4540F4420C8834004F456800146F6DFB7
:10014800E4800B0102040810204080900257E47EEE
:10015800019360BCA3FF543F30E509541FFEE493AC
:10016800A360010ECF54C025E060A840B8E493A373
:10017800FAE493A3F8E493A3C8C582C8CAC583CA9E
:10018800F0A3C8C582C8CAC583CADFE9DEE780BE56
:01025B0000A2
:10001600E709F608DFFA8046E709F208DFFA803ECC
:1000260088828C83E709F0A3DFFA8032E309F608B9
:10003600DFFA8078E309F208DFFA807088828C8321
:10004600E309F0A3DFFA806489828A83E0A3F608D5
:10005600DFFA805889828A83E0A3F208DFFA804CAF
:1000660080D280FA80C680D4806980F28033801086
:1000760080A680EA809A80A880DA80E280CA8033EF
:1000860089828A83ECFAE493A3C8C582C8CCC58367
:10009600CCF0A3C8C582C8CCC583CCDFE9DEE78037
:1000A6000D89828A83E493A3F608DFF9ECFAA9F0B6
:1000B600EDFB2289828A83ECFAE0A3C8C582C8CC0C
:1000C600C583CCF0A3C8C582C8CCC583CCDFEADE25
:1000D600E880DB89828A83E493A3F208DFF980CC87
:1000E60088F0EF60010E4E60C388F0ED2402B40480
:1000F6000050B9F582EB2402B4040050AF23234527
:06010600822390006673E5
:00000001FF
