:0300000002000EED
:0C000E00787FE4F6D8FD75810B020055E8
:0800E100020A00000208000001
:1000D100758901758CFC758A18D2A9D2AFD28C2290
:050003001200D180FE97
:03000B0002009A56
:04009A00C0E0C0D032
:10009E00758CFC758A180509E50970020508B4E827
:1000AE000AE508B403057580008013E509B4D00E87
:0E00BE00E508B407097580FF75080075090094
:0500CC00D0D0D0E032AD
:10001A00020003E493A3F8E493A34003F68001F2F9
:10002A0008DFF48029E493A3F85407240CC8C333E7
:10003A00C4540F4420C8834004F456800146F6DFB6
:10004A00E4800B01020408102040809000E1E47E65
:10005A00019360BCA3FF543F30E509541FFEE493AB
:10006A00A360010ECF54C025E060A840B8E493A372
:10007A00FAE493A3F8E493A3C8C582C8CAC583CA9D
:10008A00F0A3C8C582C8CAC583CADFE9DEE780BE55
:0100E9000016
:00000001FF
