:03000000020006F5
:0C000600787FE4F6D8FD75811F02004DE4
:100129000212000002100000021E00000A143F061D
:100139005B4F666D7D077F6F080801020408102078
:020149004080F4
:080177007FC8AE071FEE70FA0D
:01017F00225D
:10014C00758901758C4C758AD0D2AFD2A9D28C220C
:1000E700E4FBEB14601A04703074082BF8E6F5A0F3
:1000F700AE10AF117C007D0A12009274142D80158A
:1001070074082BF8E6F5A0AE10AF117C007D0A123B
:10011700009274142FF8E6F5801201770BBB02C228
:0201270080BE98
:0E015C0075A8E5D288D28AC2B8D2BA0200E7EE
:0300030002016A8D
:0D016A00C0E00511E51170020510D0E03273
:1000120002015CE493A3F8E493A34003F68001F2A7
:1000220008DFF48029E493A3F85407240CC8C333EF
:10003200C4540F4420C8834004F456800146F6DFBE
:10004200E4800B0102040810204080900129E47E24
:10005200019360BCA3FF543F30E509541FFEE493B3
:10006200A360010ECF54C025E060A840B8E493A37A
:10007200FAE493A3F8E493A3C8C582C8CAC583CAA5
:10008200F0A3C8C582C8CAC583CADFE9DEE780BE5D
:01014B0000B3
:10009200BC000BBE0029EF8DF084FFADF022E4CC52
:1000A200F875F008EF2FFFEE33FEEC33FCEE9DEC1B
:1000B200984005FCEE9DFE0FD5F0E9E4CEFD22ED61
:1000C200F8F5F0EE8420D21CFEADF075F008EF2FAB
:1000D200FFED33FD4007985006D5F0F222C398FD9C
:0500E2000FD5F0EA2239
:00000001FF
