:03000000020003F8
:0C000300787FE4F6D8FD75811902004AF0
:1000F7000A103F065B4F666D7D077F6F0808010298
:06010700040810204080F6
:08010E007FC8AE071FEE70FA76
:0101160022C6
:10008F00E4FDEDB40800505590009EF82828730247
:10009F0000B60200B80200BA0200C60200C8020091
:1000AF00D40200E00200E28010800E74082DF8E602
:1000BF00F5A08513808026801A74082DF8E6F5A028
:1000CF00851080801874082DF8E6F5A085128080C1
:1000DF000C800074082DF8E6F5A085118012010E32
:0800EF000DED6408709C80987F
:10000F0002008FE493A3F8E493A34003F68001F278
:10001F0008DFF48029E493A3F85407240CC8C333F2
:10002F00C4540F4420C8834004F456800146F6DFC1
:10003F00E4800B01020408102040809000F7E47E5A
:10004F00019360BCA3FF543F30E509541FFEE493B6
:10005F00A360010ECF54C025E060A840B8E493A37D
:10006F00FAE493A3F8E493A3C8C582C8CAC583CAA8
:10007F00F0A3C8C582C8CAC583CADFE9DEE780BE60
:01010D0000F1
:00000001FF
