:10008D00007F00FC00FF00FC0003000000F300FCFB
:10009D00000300C000F300CC0003000000F300CC0F
:1000AD00000300C000F300FC000300C000C300CF3C
:1000BD0000C900CF00C900CF000C00C000CF00CF99
:1000CD00D3EF9400EE9400400DE4FD0DBD02FC0F46
:0600DD00BF00010E80EAE5
:0100E30022FA
:10000300E4FCEC25E0248DF582E43400F583E493ED
:10001300FE740193FFEC25E02408F8A60608A60762
:100023000CBC1FDEE4FC900000E4F590F5B07B010E
:100033007A01F9E925E025E02408F808E6F580E9E6
:1000430025E025E0240AF808E6F5A0E9C394085062
:1000530013EB42907F017E001200CDE4F590EB2577
:10006300E0FB8013E5904AF5B07F017E001200CDDE
:10007300E4F5B0EA25E0FA09B910B8A3E582640211
:0A008300458370A50CBC109E809A06
:030000000200E417
:0C00E400787FE4F6D8FD75814802000327
:00000001FF
