:03000000020003F8
:0C000300787FE4F6D8FD75810F02004AFA
:0A00C4000808FEFDFBF7EFDFBF7F29
:10008F00D3EF9400EE94004015E4FDFC0DBD00018C
:0E009F000CED646E4C70F5EF1F70E51E80E2F4
:0100AD002230
:1000AE00E4FB74082BF8E6F5807FC87E0012008F03
:0600BE000BBB08EE80EA16
:10000F000200AEE493A3F8E493A34003F68001F259
:10001F0008DFF48029E493A3F85407240CC8C333F2
:10002F00C4540F4420C8834004F456800146F6DFC1
:10003F00E4800B01020408102040809000C4E47E8D
:10004F00019360BCA3FF543F30E509541FFEE493B6
:10005F00A360010ECF54C025E060A840B8E493A37D
:10006F00FAE493A3F8E493A3C8C582C8CAC583CAA8
:10007F00F0A3C8C582C8CAC583CADFE9DEE780BE60
:0100CE000031
:00000001FF
