:10000300000000400000003000FC000F004400002E
:10001300005400FD005400450054004500550045C0
:1000230000FE0047005400450054004500540045BD
:1000330000F400FD00440000004400000000000044
:1000430000000040000000200000001800FC000732
:1000530000440000004400FC004400440045004408
:10006300004600440044004400440044004400446B
:1000730000440044007C00FC00000000000000007D
:1000830000000082000800420008003100880000E0
:1000930000480000002800100018006000FF00075F
:1000A30000180010002800600048000000880000CD
:1000B30000080011000800E2000000020000000038
:1000C300000000000000000000000000000000002D
:1000D300000000000000000000000000000000001D
:1000E300000000000000000000000000000000000D
:1000F30000000000000000000000000000000000FD
:1001A300D3EF9400EE9400400DE4FD0DBD6EFCEF23
:0601B3001F70ED1E80EA42
:0101B9002223
:10010300E4FCE4F508F5097580FF75A0FFE4FBEB5B
:100113002CFF25E025E02403F582E43400F583E495
:1001230093F8740193F5828883F590EF25E025E039
:100133002405F582E43400F583740193F5B0EBC331
:100143009408501A7401A803088002C333D8FCF43E
:10015300F5807F017E001201A37580FF801CEB54A4
:1001630007FF7401A807088002C333D8FCF4F5A085
:100173007F017E001201A375A0FF0BEB6410708F4B
:100183000509E50970020508C3940AE508940050BF
:100193000302010A0CEC644060030201050201033F
:030000000201BA40
:0C01BA00787FE4F6D8FD7581090201038E
:00000001FF
