:0801B9007FC8AE071FEE70FACB
:0101C100221B
:10019900758903758CFFE4F58AD28CD2A9D2AF2276
:03000B00020003ED
:03000300B2A33273
:0F01A900C2A0D2A0C2A030A1FDD2A2AF80C2A23C
:0101B8002224
:10014500120199D2A0C2A01201A9EFF4F51CF51D68
:10015500E51D75F00A84F51FE51D75F00A8485F027
:100165001AE51AFD7C007F0612000E1201B9E51F83
:0D017500FD7C007F0512000E1201B980CA4A
:100182000A103F065B4F666D7D077F6F080801020C
:060192000408102040806B
:10000E00EC705BEDB40A00505590001EF828287372
:10001E0002003C02004102004602004B0200500268
:10002E00005502005A02005F02006402006985104A
:10003E0090802B85119080268512908021851390BB
:10004E00801C8514908017851590801285169080DF
:10005E000D85179080088518908003851990EF14F0
:10006E00B40800504590008175F003A4C58325F0B7
:10007E00C5837302009902009D0200A10200A50231
:10008E0000A90200AD0200B10200B58508B02285BC
:10009E0009B022850AB022850BB022850CB02285CC
:0B00AE000DB022850EB022850FB0229D
:030000000200B942
:0C00B900787FE4F6D8FD75811F0201007D
:1000C500020145E493A3F8E493A34003F68001F20B
:1000D50008DFF48029E493A3F85407240CC8C3333C
:1000E500C4540F4420C8834004F456800146F6DF0B
:1000F500E4800B0102040810204080900182E47E18
:10010500019360BCA3FF543F30E509541FFEE493FF
:10011500A360010ECF54C025E060A840B8E493A3C6
:10012500FAE493A3F8E493A3C8C582C8CAC583CAF1
:10013500F0A3C8C582C8CAC583CADFE9DEE780BEA9
:010198000066
:00000001FF
