:03000000020003F8
:0C000300787FE4F6D8FD75810A02004AFF
:03013A00010900B8
:0E0126007FB07E15EF1FAC0670011E4C70F608
:0101340022A8
:10008F007590F08590085308F0E508C4540F44F0BC
:10009F00F4F508B40105E4F509801CE508B4020580
:1000AF007509018012E508B404057509028008E599
:1000BF0008B4080375090375900F85900853080F4E
:1000CF00E50844F0F4F508B40105850909801DE53C
:1000DF0008B4020474048010E508B40404740880A2
:1000EF0007E508B40806740C2509F50985090A53B4
:1000FF000A0F850980E50AD39409400474378002FA
:07010F007430250AF50A22F5
:100116007590F0120126E59064F0600312008F22BC
:0501350012011680FB21
:10000F00020135E493A3F8E493A34003F68001F2D1
:10001F0008DFF48029E493A3F85407240CC8C333F2
:10002F00C4540F4420C8834004F456800146F6DFC1
:10003F00E4800B010204081020408090013AE47E16
:10004F00019360BCA3FF543F30E509541FFEE493B6
:10005F00A360010ECF54C025E060A840B8E493A37D
:10006F00FAE493A3F8E493A3C8C582C8CAC583CAA8
:10007F00F0A3C8C582C8CAC583CADFE9DEE780BE60
:01013D0000C1
:00000001FF
