:10016300021A00000A103F065B4F666D7D077F6F22
:0A0173000808010204081020408073
:10017E00758901758CDB758AFFD2AFD2A9D28C221C
:08011C00F8E6F5807F0A7E0081
:10012400D3EF9400EE94004015E4FDFC0DBD0001F6
:0E0134000CED647D4C70F5EF1F70E51E80E24F
:01014200229A
:03000B00020143AC
:10014300C0E0C0D0051BE51B7002051AD39463E51C
:100153001A94004006751A00751B00D0D0D0E03207
:1000EF0012000075A001AE1AAF1B7C007D0A120032
:1000FF009A74102F12011C75A002AE1AAF1B7C0050
:0D010F007D0A12009A74102D12011C80D67A
:0300000002000EED
:0C000E00787FE4F6D8FD75811B020055D8
:10009A00BC000BBE0029EF8DF084FFADF022E4CC4A
:1000AA00F875F008EF2FFFEE33FEEC33FCEE9DEC13
:1000BA00984005FCEE9DFE0FD5F0E9E4CEFD22ED59
:1000CA00F8F5F0EE8420D21CFEADF075F008EF2FA3
:1000DA00FFED33FD4007985006D5F0F222C398FD94
:0500EA000FD5F0EA2231
:10001A000200EFE493A3F8E493A34003F68001F20D
:10002A0008DFF48029E493A3F85407240CC8C333E7
:10003A00C4540F4420C8834004F456800146F6DFB6
:10004A00E4800B0102040810204080900163E47EE2
:10005A00019360BCA3FF543F30E509541FFEE493AB
:10006A00A360010ECF54C025E060A840B8E493A372
:10007A00FAE493A3F8E493A3C8C582C8CAC583CA9D
:10008A00F0A3C8C582C8CAC583CADFE9DEE780BE55
:01017D000081
:00000001FF
