:03000000020003F8
:0C000300787FE4F6D8FD75811702004AF2
:1000F800FC60DAF266B6BEE0FFF6EE3E9C7A9E8EB3
:1000E30008103F3F4F063F5B5B6D080801020408A1
:0400F3001020408019
:10008F00D3EF9400EE94004015E4FDFC0DBD00018C
:0E009F000CED646E4C70F5EF1F70E51E80E2F4
:0100AD002230
:1000CA00EF9000F893FFE4FEC290EF139291D29062
:0800DA00EFC313FF0EBE08F096
:0100E20022FB
:080108007FC8AE071FEE70FA7C
:0101100022CC
:1000AE00E4FD74082DF8E6F5A075809074102DF817
:0C00BE00E6F5801201080DBD08E880E4A2
:10000F000200AEE493A3F8E493A34003F68001F259
:10001F0008DFF48029E493A3F85407240CC8C333F2
:10002F00C4540F4420C8834004F456800146F6DFC1
:10003F00E4800B01020408102040809000E3E47E6E
:10004F00019360BCA3FF543F30E509541FFEE493B6
:10005F00A360010ECF54C025E060A840B8E493A37D
:10006F00FAE493A3F8E493A3C8C582C8CAC583CAA8
:10007F00F0A3C8C582C8CAC583CADFE9DEE780BE60
:0100F7000008
:00000001FF
