:0300000002000EED
:0C000E00787FE4F6D8FD75811B020055D8
:10015300021000000A123F065B4F666D7D077F6F3A
:0A0163000808010204081020408083
:08017E007FC8AE071FEE70FA06
:010186002256
:10016E00758901758CDB758AFFD2AFD2A9D28C222C
:1000EF00E4FBEB14601A04703074082BF8E6F5A0EB
:1000FF00AE10AF117C007D0A12009A74122D80157C
:10010F0074082BF8E6F5A0AE10AF117C007D0A1233
:10011F00009A74122FF8E6F58012017E0BBB02C213
:02012F0080BE90
:0600030012016E0200EF85
:03000B00020131BE
:10013100C0E0C0D0D3E5119463E51094004006758A
:1001410010007511000511E51170020510D0D0D015
:02015100E0329A
:10001A00020003E493A3F8E493A34003F68001F2F9
:10002A0008DFF48029E493A3F85407240CC8C333E7
:10003A00C4540F4420C8834004F456800146F6DFB6
:10004A00E4800B0102040810204080900153E47EF2
:10005A00019360BCA3FF543F30E509541FFEE493AB
:10006A00A360010ECF54C025E060A840B8E493A372
:10007A00FAE493A3F8E493A3C8C582C8CAC583CA9D
:10008A00F0A3C8C582C8CAC583CADFE9DEE780BE55
:01016D000091
:10009A00BC000BBE0029EF8DF084FFADF022E4CC4A
:1000AA00F875F008EF2FFFEE33FEEC33FCEE9DEC13
:1000BA00984005FCEE9DFE0FD5F0E9E4CEFD22ED59
:1000CA00F8F5F0EE8420D21CFEADF075F008EF2FA3
:1000DA00FFED33FD4007985006D5F0F222C398FD94
:0500EA000FD5F0EA2231
:00000001FF
