:03000000020003F8
:0C000300787FE4F6D8FD75811B02004AEE
:10013C004B4559204E554D4245523A2020204820DF
:10014C000020204B45592D434F44453A2020204850
:02015C00200081
:1001AA00010900100B3132334134353642373839C0
:0501BA00432A3023443C
:1001C0007580FFC2A0D2A1C2A2C2A2D2A2E58020A5
:0501D000E7FBAF8022F7
:07019400E4FC7F3812017C3E
:0E019B007FB07E15EF1FAC0670011E4C70F693
:0101A9002233
:1001D500AE071201C08E80D2A0C2A1C2A2C2A2D215
:0401E500A2C2A222EE
:10017C00AE07ED4C60031201C08E80C2A0C2A1C2BA
:08018C00A2C2A2D2A2C2A2226B
:0D020700D2A0D2A1C2A2C2A2D2A2AF802278
:10011300E4F580FD1201951201941201940D7C0007
:100123007F3812017C7F0812017C7F0112017C7FE2
:090133000612017C7F0C02017C24
:10015E00AE0753050153060FED60034306404306F9
:0E016E0080AF06E4FDFC12017CAF030201D558
:10008F007590F08590085308F0E508C4540F44F0BC
:10009F00F4F508B40105E4F509801CE508B4020580
:1000AF007509018012E508B404057509028008E599
:1000BF0008B4080375090375900F85900853080F4E
:1000CF00E50844F0F4F508B40105850909801DE53C
:1000DF0008B4020474048010E508B40404740880A2
:1000EF0007E508B40806740C2509F50985090A53B4
:1000FF000A0FE50AD394094004743780027430253F
:04010F000AF50A22C1
:1001E9007590F012019BE59064F0600312008F2274
:0E01F9007580FF75A0FF1201E985098080F86E
:10000F000201F9E493A3F8E493A34003F68001F20D
:10001F0008DFF48029E493A3F85407240CC8C333F2
:10002F00C4540F4420C8834004F456800146F6DFC1
:10003F00E4800B01020408102040809001AAE47EA6
:10004F00019360BCA3FF543F30E509541FFEE493B6
:10005F00A360010ECF54C025E060A840B8E493A37D
:10006F00FAE493A3F8E493A3C8C582C8CAC583CAA8
:10007F00F0A3C8C582C8CAC583CADFE9DEE780BE60
:0101BF00003F
:00000001FF
