:10000300007F00FF00FF00FE0003008000FB00FEF6
:10001300000B00E000FB00EE0003008000FB00EE9D
:10002300000B00E000FB00FE000B00E000EB00EF24
:1000330000ED00EF00ED00EF000E00E000EF00EF39
:10004300007F00FF00FF00FE000700C000F700DF95
:1000530000F700DF00F700DF000700C000F700FF34
:1000630000F700FF00F700FF001700C000DB00DF10
:1000730000DB00DF00DD00DF001E00C000DF00DF6B
:10008300007F00FF007F00FF007F00FF000100C032
:10009300003F00FE005F00FD006F00FB007700F7EC
:1000A300007B00EF007C009F007F00FF00FF00FF4C
:1000B30000DB00EE00BB00DD00BD00DD00FE00DF65
:1000C30000FF00FF00FF00FF00FF00FF00FF00FF35
:1000D30000FF00FF00FF00FF00FF00FF00FF00FF25
:1000E30000FF00FF00FF00FF00FF00FF00FF00FF15
:1000F30000FF00FF00FF00FF00FF00FF00FF00FF05
:10019000D3EF9400EE9400400DE4FD0DBD6EFCEF36
:0601A0001F70ED1E80EA55
:0101A6002236
:10010300E4FCE4F508F509E4F590F5B079017B0129
:10011300FAEA2CFF25E025E02403F582E43400F518
:1001230083E493F8740193F5828883F580EF25E0E7
:1001330025E02405F582E43400F583740193F5A0EA
:10014300EAC394085013E942907F017E00120190A4
:10015300E4F590E925E0F98013E5904BF5B07F01D4
:100163007E00120190E4F5B0EB25E0FB0ABA10A182
:100173000509E50970020508C3940AE508940040DF
:0D018300860CEC64406003020105020103DC
:030000000201A753
:0C01A700787FE4F6D8FD758109020103A1
:00000001FF
