:03000000020003F8
:0C000300787FE4F6D8FD75813302004AD6
:1001100001210010230102030A0405060B07080948
:100120000C0E000F0D08080102040810204080107A
:10013000113F065B4F666D7D077F6F777C395E7977
:01014000714D
:0E0179007F287E02EF1FAC0670011E4C70F650
:010187002255
:080188007FC8AE071FEE70FAFC
:01019000224C
:10008F007590F08590105310F0E510C4540F44F0A4
:10009F00F4F510B40105E4F521801CE510B4020558
:1000AF007521018012E510B404057521028008E561
:1000BF0010B4080375210375900F85901053100F1E
:1000CF00E51044F0F4F510B40102801DE510B40200
:1000DF000474048010E510B4040474088007E5105C
:1000EF00B40806740C2521F52185212253220FE532
:1000FF0022D3940940047437800274302522F522EC
:01010F0022CD
:100169007590F0120179E59064F0600312008F2216
:10014200120169E4FD120188ED701374082DF8E6BE
:10015200F5B074232521F8E62411F8E6F5800DBDEB
:0701620001E312018880D9BE
:10000F00020142E493A3F8E493A34003F68001F2C4
:10001F0008DFF48029E493A3F85407240CC8C333F2
:10002F00C4540F4420C8834004F456800146F6DFC1
:10003F00E4800B0102040810204080900110E47E40
:10004F00019360BCA3FF543F30E509541FFEE493B6
:10005F00A360010ECF54C025E060A840B8E493A37D
:10006F00FAE493A3F8E493A3C8C582C8CAC583CAA8
:10007F00F0A3C8C582C8CAC583CADFE9DEE780BE60
:0101410000BD
:00000001FF
