:03000000020016E5
:0C001600787FE4F6D8FD75810A02005DD9
:04000600020800FFED
:0E00E3007FF47E011200F16390FF7FF47E0136
:1000F100D3EF9400EE94004015E4FDFC0DBD00012A
:0E0101000CED646E4C70F5EF1F70E51E80E291
:01010F0022CD
:1000A200D2AFD2A8D288D2AAD28AC2B8D2BAE4FB3C
:1000B2007401A803088002C333D8FCF4F59012003F
:1000C200ED0BBB08EBE4FBEBC3940850E17480A892
:1000D20003088002C313D8FCF4F5901200ED0B80E4
:0100E200E637
:03000300020110E7
:10011000C0E0C0D075D000C003C004C005C006C098
:0101200007D7
:0C012100E4FB7590001200E30BBB03F63A
:0F012D00D007D006D005D004D003D0D0D0E03218
:0300130002013CAB
:10013C00C0E0C0D075D000C003C004C005C006C06C
:01014C0007AB
:0C014D00E4FB7590F01200E30BBB03F61E
:0F015900D007D006D005D004D003D0D0D0E032EC
:100022000200A2E493A3F8E493A34003F68001F252
:1000320008DFF48029E493A3F85407240CC8C333DF
:10004200C4540F4420C8834004F456800146F6DFAE
:10005200E4800B0102040810204080900006E47E38
:10006200019360BCA3FF543F30E509541FFEE493A3
:10007200A360010ECF54C025E060A840B8E493A36A
:10008200FAE493A3F8E493A3C8C582C8CAC583CA95
:10009200F0A3C8C582C8CAC583CADFE9DEE780BE4D
:01000A0000F5
:00000001FF
