:030000000203896F
:0C038900787FE4F6D8FD7581270203D0D0
:1004C80010103F065B4F666D7D077F6F777C395E46
:0C04D8007971080801020408102040801F
:08000E007FC8AE071FEE70FA77
:0100160022C7
:1004E500438901758DFC758B18D2ABD2AFD28E22A4
:1004F500758903758CFFE4F58AD28CD2A9D2AF2217
:0F050500C2A0D2A0C2A030A1FDD2A2AF90C2A2CC
:0105140022C4
:03000B00020003ED
:03000300B2A33273
:03001B000204AB31
:0204AB00C0E0AF
:1004AD00758DFC758B180527E52770020526640AE6
:0804BD0045267004F526F52721
:0304C500D0E03252
:10046400EF75F00A84741025F0F8E6F521EF75F0C5
:100474000A842410F8E64480F522E4FDFCEC7018AC
:10048400ED14600304701174082DF8E6F5B075805E
:100494009074212DF8E6F58012000E0DBD00010CBC
:0604A400ED64024C70D76C
:0104AA00222F
:100415001204F5D2A0C2A01205058F20E4F524F53B
:1004250025AC20E41202C6E4FBFAF9783F12002558
:10043500E4FBFA7988784212021FE4FBFA79207806
:10044500411201161202FA8F231204640525E525CF
:0F04550070020524C39464E524940040C480B869
:10001E00020366E86480F8E933E83360110460F0A7
:10002E00ED33EC337009E8FCE9FDEAFEEBFF220448
:10003E0060DED3EB9FEA9EE99DE8C2E78CF0C2F743
:10004E0095F0400CE8CCF8E9CDF9EACEFAEBCFFB0F
:10005E0012033185D0F05804700320D5B3E8047034
:10006E00075002B2D502037092D5EC0460F7E4CCCF
:10007E00C0E0C398F8603B94186008400DD0E0FBD8
:10008E00020348E4FBFAC9FC8028E830E406E4C920
:10009E00FBE4CAFCE830E305E4C9CACBFCE854072C
:1000AE006010F8C3E913F9EA13FAEB13FBEC13FC37
:1000BE00D8F130F52FC3E49CFCEF9BFFEE9AFEEDDA
:1000CE0099FDD0E0FBEF4E4D4C701222DB03020384
:1000DE006DEC2CFCEF33FFEE33FEED33FDED30E730
:1000EE00EB020348EF2BFFEE3AFEED39FDD0E0FBBD
:1000FE0050130BBB0003020370ED13FDEE13FEEF66
:08010E0013FFEC13FC0203488F
:10011600EC4D6011E8497017ED33EC3304600DE4E3
:10012600FCFFFEFD22E933E8330470F80203661291
:10013600033158046009E4CC248150062850090292
:10014600037028400302036DC0E0EB4A7044B98097
:1001560006D0E0FB02035CEF4E701CBD8008EBFF8F
:10016600EAFEE9FD80EBE98DF0A4FEE5F00201FF71
:10017600E9CDF9EAFEEBFFEF89F0A4FCE5F0CE89C4
:10018600F0A42EFFE435F0CD89F0A42DFEE435F081
:100196008067EF4E7005BD80D780C3EF8BF0A4ACAF
:1001A600F0EE8BF0A42CFCE435F0F8EF8AF0A42CEA
:1001B600E5F038FCE433CB8DF0A42CFCE5F03BF8FD
:1001C600EE8AF0A42CFCE5F038F8E433CF89F0A4ED
:1001D6002CFCE5F038CF3400CE89F0A42FFFE5F0F3
:1001E6003EFEE433C98DF0A42EFEE5F039CD8AF04B
:1001F600A42FFFE5F03EFEE43DFD33D0E0FB5007C3
:100206000BBB000F020370EC2CFCEF33FFEE33FE4A
:06021600ED33FD02034878
:10021C00020370EC5D046005E85904700302036688
:10022C00120331580460F6EC4860F2EC7004FDFEE9
:10023C00FF22C860DB2481C85009C39860025006B5
:10024C0002036D9850CAF582E9294B4A7005AB82BE
:10025C0002035C75F0007C1A7880C3EF9BEE9AED7C
:10026C0099400DC3EF9BFFEE9AFEED99FDE842F02D
:10027C00DC23ACF0D0E0FFD0E0FED0E0FDAB822080
:10028C00E7101BEB60BAEC2CFCEF33FFEE33FEED0A
:10029C0033FD020348E803F830E705C0F075F000C1
:1002AC00EF2FFFEE33FEED33FD40B830E7C280AAEE
:1002BC0075F020800E75F010800575F0087D007EBD
:1002CC00007F003392D530D50312037BEC33401002
:1002DC00EF33FFEE33FEED33FDEC33FCD5F0ED22C6
:0E02EC00E5F0247EA2D513CC92E7CDCEFF2202
:1002FA00EDD2E7CD33EC3392D524814006E4FFFEFC
:10030A00FDFC22FCE4CFCECDCC24E0501174FF805A
:10031A00EDC3CC13CCCD13CDCE13CECF13CF0470F7
:07032A00F030D5DE02037B79
:10033100E9D2E7C933E833F892D5EDD2E7CD33EC12
:0703410033FC5002B2D5228B
:10034800EC30E7100FBF000C0EBE00080DBD000416
:100358000BEB6014A2D5EB13FCED92E7FD2274FFC2
:10036800FCFDFEFF22E480F8A2D574FF13FC7D801B
:03037800E480EF2F
:10039500020415E493A3F8E493A34003F68001F265
:1003A50008DFF48029E493A3F85407240CC8C33369
:1003B500C4540F4420C8834004F456800146F6DF38
:1003C500E4800B01020408102040809004C8E47EFC
:1003D500019360BCA3FF543F30E509541FFEE4932D
:1003E500A360010ECF54C025E060A840B8E493A3F4
:1003F500FAE493A3F8E493A3C8C582C8CAC583CA1F
:10040500F0A3C8C582C8CAC583CADFE9DEE780BED6
:0104E4000017
:0E037B00C3E49FFFE49EFEE49DFDE49CFC2293
:00000001FF
