:03000000020127D3
:0C012700787FE4F6D8FD75810902000322
:1000900000FF00FF00FF00FF00FF00FF00FF00FF68
:1000A00000FF00FF00FF00FF00FF00FF00FF00FF58
:1000B00000FF00FF00FF00FF00FF00FF00FF00FF48
:1000C00000FF00FF00FF00FF00FF00FF00FF00FF38
:1000D00000BF00FF007F00FF0001008000ED00BBBB
:1000E000007600D7000B00E8007F00FF000100C091
:1000F00000DF00DE00B700EE006F00FF00000080B0
:1001000000BF00F900DF00F700E700EF00F900DFB3
:10011000D3EF9400EE9400400DE4FD0DBD6EFCEFB6
:060120001F70ED1E80EAD5
:0101260022B6
:10000300E4FCE4F508F509E4F590F5B079017B012A
:10001300FAEA2CFF25E025E02490F582E43400F58C
:1000230083E493F8740193F5828883F580EF25E0E8
:1000330025E02492F582E43400F583740193F5A05E
:10004300EAC394085013E942907F017E0012011025
:10005300E4F590E925E0F98013E5904BF5B07F01D5
:100063007E00120110E4F5B0EB25E0FB0ABA10A103
:100073000509E50970020508C39432E508940040B8
:0D008300860CEC641060030200050200030F
:00000001FF
